:100000000C9426021895189518951895189518951A
:100010001895189518951895189518951895189578
:100020001895189518951895189518951895189568
:100030001895189518951895189518951895189558
:100040001895189518951895189518951895189548
:100050001895189518951895189518950C94F901F8
:100060001895189518951895189518951895189528
:100070001895189518951895189518951895189518
:100080001895189518951895189518951895189508
:1000900018951895189518951895189518951895F8
:1000A00018951895189518951895189518951895E8
:1000B00018951895189518951895189518951895D8
:1000C00018951895189518951895189518951895C8
:1000D00018951895189518951895189518951895B8
:1000E000189518950E943802A89500916000086143
:1000F0000093600008E2009360000FEF01B901E394
:1001000005B907E704B90FEF07B90FEF0AB903E024
:100110000EB90EEF0DB90FEF00BB00E204BB0FE309
:1001200003BB0FEF009301010FEF009304010FEFEA
:10013000009307010FEF00930A0101E00093910281
:1001400000E00093920200E000939002A89578945A
:1001500000E00093C00000E00093C10006E00093BF
:10016000C2000FE90093C40001E00093C50008E05D
:100170000093C10000E005BD08E906BD00E004BD34
:1001800004E005BD01E000936E0054D10091C10070
:100190000F7E0093C10004E000939102609903C0B8
:1001A00004E000939102009191020023B9F70091BD
:1001B000C10000610093C1000BE110E0112372F057
:1001C0002091C000322F37FFFBCF2091C600F801ED
:1001D000ED56FD4F208301501040F0CF02E3009315
:1001E0009202A59828980091AE02802F869587707C
:1001F0000091AE02A02F0A2FA02FA1700A2F00FBA2
:10020000A0E0A7F9A25F2C98082F17D10A2F15D1CB
:100210002C9A289A28980091AD02802F8695877095
:100220000091AD02A02F0A2FA02FA1700A2F00FB72
:10023000A0E0A7F9A25F2D98082FFFD00A2FFDD0CC
:100240002D9A289A4424552406E0401600E05006D2
:100250003CF527E130E08201000F111F000F111F54
:10026000201B310B390124E130E08201000F111F06
:10027000000F111F201B310B6216730654F0F3019F
:10028000ED56FD4F0081D9D00FEF600E0FEF701EBD
:10029000EACF2E9A2E9801E0400E00E0501ED4CFF7
:1002A0000091AC02902F92959F709695092F902FF8
:1002B0009170092F000F000F000F1EB1102B1EB9F7
:1002C0000091AC02902F92959F70092F902F917002
:1002D000092F0295007F1EB1102B1EB90091AC02B0
:1002E000902F969596959695092F902F9170092F9E
:1002F0000295007F000F1EB1102B1EB90091AC02B9
:10030000902F96959695092F902F917000E4909FCD
:100310000EB100290EB90091AC02902F9695092FCD
:10032000902F9170092F00FB00E007F91EB1102BF0
:100330001EB90091AC02902F092F902F917001B33C
:10034000092B01BB0091AB02902F92959F7096955F
:10035000092F902F9170092F000F000F11B3102B50
:1003600011BB0091AB02902F92959F70092F902F97
:100370009170092F000F000F000F11B3102B11BB4C
:100380000091AB02902F969596959695092F902FF8
:100390009170092F0295007F11B3102B11BB0091B2
:1003A000AB02902F96959695092F902F9170092F5B
:1003B0000295007F000F11B3102B11BB0091AB020F
:1003C000902F9695092F902F917000E4909F01B384
:1003D000002901BB0091AB02902F092F902F917043
:1003E000092F00FB00E007F911B3102B11BBA895F2
:1003F000CDCE2A931A930A931FB72BB708E906BDEF
:1004000000919102002329F0009191020A95009336
:10041000910200919202002331F0009192020A951C
:100420000093920201C0A59A2BBF1FBF0991199199
:10043000299118950BE50CBD08950EBD1DB5212F12
:1004400027FFFCCF089500008895FECF0FE80DBF71
:1004500002E00EBFC0E5D2E00E944102002311F08D
:100460000E9453020E9472000E9423020C942302F5
:100470007A926A925A924A92BA93AA939A938A93D8
:10048000089501E0089520E008D0E9F708953BBF02
:1004900027913BB702D0D9F708952D930150104012
:1004A000202F212B089506E0402E05E0502E00E07D
:1004B000602EF201362D6BBE07911691F201EE5FB0
:1004C000FF4F3F4F3BBFA791B691F201362DEC5F36
:1004D000FF4F3F4F3BBF479157916691242F252BEC
:1004E000262B21F0FA01362FD2DF01C0CCDF07E046
:1004F000400E00E0501E601EA201662D4D3055409A
:0D0500006040B8F208951F00900200000056
:00000001FF
:00000001FF
