:100000000C94400218951895189518951895189500
:100010001895189518951895189518951895189578
:100020001895189518951895189518951895189568
:100030001895189518951895189518951895189558
:100040001895189518951895189518951895189548
:100050001895189518951895189518950C94E10110
:100060001895189518951895189518951895189528
:100070001895189518951895189518951895189518
:100080001895189518951895189518951895189508
:1000900018951895189518951895189518951895F8
:1000A00018951895189518951895189518951895E8
:1000B00018951895189518951895189518951895D8
:1000C00018951895189518951895189518951895C8
:1000D00018951895189518951895189518951895B8
:1000E0001895189541444634333530202D205769F2
:1000F000646562616E642053796E74686573697AB1
:100100006572207769746820496E746567726174DE
:0701100065642056434F0017
:100118000E945202A8950091600008610093600057
:1001280008E2009360000FEF01B901E305B907E7A2
:1001380004B90FEF07B90FEF0AB903E00EB90EEFD4
:100148000DB90FEF00BB00E204BB0FE303BB0FEFD9
:10015800009301010FEF009304010FEF00930701D3
:100168000FEF00930A011F9B04C001E00093B50242
:1001780003C000E00093B50201E00093B60200E07E
:100188000093B702A89578940091B502002309F46A
:100198000FC100E00093C00000E00093C10006E03A
:1001A8000093C2000FE10093C4000FE10093C50063
:1001B8000CE00093C10000E005BD08EB06BD00E0BF
:1001C80004BD04E005BD01E000936E0017D104EE04
:1001D80010E00E942A020DE00E940B020AE00E9431
:1001E8000B0200E912E00E941D020DE00E940B02C2
:1001F8000AE00E940B020091C1000F7E0093C1002B
:1002080004E00093B602489903C004E00093B602E4
:100218000091B6020023B9F70091C1000061009374
:10022800C1000BE110E0112372F02091C000322FC1
:1002380037FFFBCF2091C600F801E854FD4F20831B
:1002480001501040F0CF28984424552405E040166A
:1002580000E050063CF127E130E08201000F111F59
:10026800000F111F201B310B390124E130E08201FE
:10027800000F111F000F111F201B310B6216730690
:1002880054F0F301E854FD4F0081BBD00FEF600E2E
:100298000FEF701EEACF2E9A2E9801E0400E00E074
:1002A800501ED4CF289A0091D302802F869587704C
:1002B8000091D302902F092F902F9170092F00FBE6
:1002C80090E097F9925F2C98082F9BD0092F99D02E
:1002D8002C9A0091D202802F869587700091D202C5
:1002E800902F092F902F9170092F00FB90E097F91C
:1002F800925F2D98082F85D0092F83D02D9A0091D1
:10030800D102A02FA295AF70A6950A2FA02FA17099
:100318000A2F000F000F000F1EB1102B1EB90091FD
:10032800D102A02FA295AF700A2FA02FA1700A2F7B
:100338000295007F1EB1102B1EB90091D102A02F8B
:10034800A695A695A6950A2FA02FA1700A2F02950B
:10035800007F000F1EB1102B1EB90091D102A02FF3
:10036800A695A6950A2FA02FA17000E4A09F0EB114
:1003780000290EB90091D102A02FA6950A2FA02F0F
:10038800A1700A2F00FB00E007F91EB1102B1EB95F
:100398000091D102A02F0A2FA02FA17001B30A2B20
:1003A80001BB2D9B02C02D9801C02D9AA89523CF83
:1003B80000E010E0E8E00C945B022A931A930A9399
:1003C8001FB72BB708EB06BD0091B602002329F032
:1003D8000091B6020A950093B6020091B702002375
:1003E80031F00091B7020A950093B70201C0A59AAF
:1003F8002BBF1FBF099119912991189503E50CBDD1
:1004080008950EBD1DB5212F27FFFCCF089510912B
:10041800C00010641093C0001091C1001E7F10939B
:10042800C1000093C6001091C000212F26FFFBCF0A
:100438000895BA93AA93D8010C91002321F00C9146
:10044800E6DF1196F9CFA991B99108950E94550256
:10045800C801A0E0B0E0FC01EA0FFB1F0491A395DE
:10046800402E002319F0042DD2DFF4CFE5E00C94E0
:100478005E0200008895FECF0FE80DBF02E00EBFB8
:10048800C0E5D2E00E946802002311F00E947A02BF
:100498000E948C000E943D020C943D027A926A925E
:1004A8005A924A92BA93AA939A938A9308957F800C
:1004B8006E805D804C80BB81AA8199818881F0E043
:1004C800EC0FFD1FEF01089501E0089520E008D02A
:1004D800E9F708953BBF27913BB702D0D9F70895B4
:1004E8002D9301501040202F212B089504E5402E14
:1004F80005E0502E00E0602EF201362D6BBE07910C
:100508001691F201EE5FFF4F3F4F3BBFA791B691A7
:10051800F201362DEC5FFF4F3F4F3BBF479157919C
:100528006691242F252B262B21F0FA01362FD2DFB6
:1005380001C0CCDF07E0400E00E0501E601EA201A3
:10054800662D423655406040B8F208952500900265
:100558006205001F00B5020000002D2D2D2D2D2D48
:100568002D2D2D2D2D2D2D2D2D2D2D2D2D2D2D2DB3
:0F0578002D2D2D2D2D2D2D2D2D2D2D2D2D2D00FE
:00000001FF
:00000001FF
