:100000000C946603189518951895189518951895D9
:100010001895189518951895189518951895189578
:100020001895189518951895189518951895189568
:100030001895189518951895189518951895189558
:100040001895189518951895189518951895189548
:100050001895189518951895189518950C943903B6
:100060001895189518951895189518951895189528
:100070001895189518951895189518951895189518
:100080001895189518951895189518951895189508
:1000900018951895189518951895189518951895F8
:1000A00018951895189518951895189518951895E8
:1000B00018951895189518951895189518951895D8
:1000C00018951895189518951895189518951895C8
:1000D00018951895189518951895189518951895B8
:1000E00018951895060105010F01012701DF3F0151
:1000F000015701016F01018701019F0101B7010152
:10010000CF0101E70101FF01011702012F020147A1
:1001100002015F02017702018F02FB000E94C60309
:10012000A8950091600008610093600008E20093C8
:1001300060000FEF01B901E305B907E704B90FEF5C
:1001400007B90FEF0AB903E00EB90EEF0DB90FEFC3
:1001500000BB00E204BB0FE303BB0FEF0093010100
:100160000FEF009304010FEF009307010FEF0093CF
:100170000A0101E00093900200E000939102A8952B
:10018000789400E00093C00000E00093C10006E016
:100190000093C20000E10093C40000E00093C5009A
:1001A00008E00093C10000E005BD08E906BD00E0DD
:1001B00004BD04E005BD01E000936E007BD2009118
:1001C000C1000F7E0093C10004E00093900260998B
:1001D00003C004E000939002009190020023B9F75D
:1001E0000091C10000610093C1000091C000102F78
:1001F00017FFFBCF0091C600902F0091C000102F79
:1002000017FFFBCF0091C600802F8A3A09F4A0C1E6
:10021000082FE4EEF0E0FBBFF0E00C948103A1E0D6
:10022000B0E0A43000E0B00794F40091C000102FBB
:1002300017FFFBCF2091C60030E08D01000F111F8A
:10024000F801EA52F74F208331831196EACFA1E0FB
:10025000B0E0A43000E0B00794F40091C000102F8B
:1002600017FFFBCF2091C60030E08D01000F111F5A
:10027000F801E252F74F208331831196EACFA1E0D3
:10028000B0E0A43000E0B00794F40091C000102F5B
:1002900017FFFBCF2091C60030E08D01000F111F2A
:1002A000F801EA51F74F208331831196EACFA1E09C
:1002B000B0E0A43000E0B00794F40091C000102F2B
:1002C00017FFFBCF2091C60030E08D01000F111FFA
:1002D000F801E251F74F208331831196EACFA1E074
:1002E000B0E0A43000E0B00794F40091C000102FFB
:1002F00017FFFBCF2091C60030E08D01000F111FCA
:10030000F801EA50F74F208331831196EACFA1E03C
:10031000B0E0A43000E0B00794F40091C000102FCA
:1003200017FFFBCF2091C60030E08D01000F111F99
:10033000F801E250F74F208331831196EACFA1E014
:10034000B0E0A43000E0B00794F40091C000102F9A
:1003500017FFFBCF2091C60030E08D01000F111F69
:10036000F801EA5FF64F208331831196EACFA1E0CE
:10037000B0E0A43000E0B00794F40091C000102F6A
:1003800017FFFBCF2091C60030E08D01000F111F39
:10039000F801E25FF64F208331831196EACFA1E0A6
:1003A000B0E0A43000E0B00794F40091C000102F3A
:1003B00017FFFBCF2091C60030E08D01000F111F09
:1003C000F801EA5EF64F208331831196EACFA1E06F
:1003D000B0E0A43000E0B00794F40091C000102F0A
:1003E00017FFFBCF2091C60030E08D01000F111FD9
:1003F000F801E25EF64F208331831196EACFA1E047
:10040000B0E0A43000E0B00794F40091C000102FD9
:1004100017FFFBCF2091C60030E08D01000F111FA8
:10042000F801EA5DF64F208331831196EACFA1E00F
:10043000B0E0A43000E0B00794F40091C000102FA9
:1004400017FFFBCF2091C60030E08D01000F111F78
:10045000F801E25DF64F208331831196EACFA1E0E7
:10046000B0E0A43000E0B00794F40091C000102F79
:1004700017FFFBCF2091C60030E08D01000F111F48
:10048000F801EA5CF64F208331831196EACFA1E0B0
:10049000B0E0A43000E0B00794F40091C000102F49
:1004A00017FFFBCF2091C60030E08D01000F111F18
:1004B000F801E25CF64F208331831196EACFA1E088
:1004C000B0E0A43000E0B00794F40091C000102F19
:1004D00017FFFBCF2091C60030E08D01000F111FE8
:1004E000F801EA5BF64F208331831196EACFA1E051
:1004F000B0E0A43000E0B00794F40091C000102FE9
:1005000017FFFBCF2091C60030E08D01000F111FB7
:10051000F801E25BF64F208331831196EACFA1E028
:10052000B0E0A43000E0B00794F40091C000102FB8
:1005300017FFFBCF2091C60030E08D01000F111F87
:10054000F801EA5AF64F208331831196EACF5DCE47
:10055000953509F08CC002E300939102A59803E061
:10056000ACD000E0AAD000919405A7D000919505E9
:10057000A4D000919905A1D003EE9FD000E09DD0BA
:1005800000E09BD00091A10898D000919D0895D0E3
:1005900004EE93D00091A80890D00091A9088DD0C6
:1005A0000091A4088AD000919B0887D005EE85D0E1
:1005B00000E083D00091B50880D00091AD087DD0D7
:1005C0000091B1087AD006EE78D00091B70875D0C6
:1005D0000091B80872D00091B9086FD00091BB08A3
:1005E0006CD007EE6AD00091BC0867D00091BD08BE
:1005F00064D00091BF0861D00091C0085ED008EEC1
:100600005CD00091C10859D00091C30856D0009128
:10061000C40853D00091C50850D009EE4ED00091C7
:10062000C7084BD00091C80848D00091C90845D0F0
:100630000091CB0842D00AEE40D00091CC083DD0CA
:100640000091CD083AD00091CF0837D00091D00862
:1006500034D00BEE32D00091D1082FD00091D308C6
:100660002CD00091D40829D00091D50826D0A89587
:10067000A6CD2A931A930A931FB72BB708E906BD94
:1006800000919002002329F0009190020A950093B6
:10069000900200919102002331F0009191020A959D
:1006A0000093910201C0A59A2BBF1FBF0991199118
:1006B000299118950BE50CBD08950EBD1DB5212F90
:1006C00027FFFCCF089500008895FECF0FE80DBFEF
:1006D00002E00EBFC0E5D2E00E94CB03002311F080
:1006E0000E94DD030E948E000E9463030C9463034A
:1006F0007791679157914791179011FA279037900A
:100700000895F9DF041B10E003C0F4DF041B150B90
:1007100020E030E005C0ECDF041B150B260B370B87
:10072000B8F010FC17C047910790E00FF11F0417B5
:10073000100540E02407340758F436F406910024ED
:10074000F101E01BF0090994E00FF11F27903790A9
:10075000F101099411F4D6F7F1CF31960EF03196EC
:1007600050E060E070E047914B3F48F089F34F3F25
:1007700029F04E3F11F07791679157914791041BF3
:10078000150B260B370B39F318F3E7CFBA93AA935F
:100790009A938A93089501E0089520E008D0E9F73C
:1007A00008953BBF27913BB702D0D9F708952D9309
:1007B00001501040202F212B08950AE1402E08E01F
:1007C000502E00E0602EF201362D6BBE079116917F
:1007D000F201EE5FFF4F3F4F3BBFA791B691F20191
:1007E000362DEC5FFF4F3F4F3BBF479157916691CE
:1007F000242F252B262B21F0FA01362FD2DF01C022
:10080000CCDF07E0400E00E0501E601EA201662D06
:10081000413258406040B8F20895CE069002000080
:0108200000D7
:00000001FF
:00000001FF
