:100000000C94C00218951895189518951895189580
:100010001895189518951895189518951895189578
:100020001895189518951895189518951895189568
:100030001895189518951895189518951895189558
:100040001895189518951895189518951895189548
:100050001895189518951895189518950C9493025D
:100060001895189518951895189518951895189528
:100070001895189518951895189518951895189518
:100080001895189518951895189518951895189508
:1000900018951895189518951895189518951895F8
:1000A00018951895189518951895189518951895E8
:1000B00018951895189518951895189518951895D8
:1000C00018951895189518951895189518951895C8
:1000D00018951895189518951895189518951895B8
:1000E000189518950E94D202A895009160000861A9
:1000F0000093600008E2009360000FEF01B901E790
:1001000005B907E704B90FEF07B90FEF0AB903E024
:100110000EB90EEF0DB90FEF00BB00E204BB0FE309
:1001200003BB0FEF009301010FEF009304010FEFEA
:10013000009307010FEF00930A0101E00093900282
:1001400000E000939102A895789400E00093C0002D
:1001500000E00093C10006E00093C20000E10093BC
:10016000C40000E00093C50008E00093C10000E077
:1001700005BD08E906BD00E004BD04E005BD01E0E1
:1001800000936E00F1D10091C1000F7E0093C10079
:1001900004E000939002609903C004E00093900291
:1001A000009190020023B9F70091C1000061009313
:1001B000C1000091C000102F17FFFBCF0091C600B7
:1001C000802F8A3A09F0F9C0A0E0B0E0A43400E042
:1001D000B0076CF40091C000102F17FFFBCF009107
:1001E000C600FD01EE56FD4F00831196EFCF02E3EE
:1001F00000939102A5982E9803E0B9D100E0B7D101
:1002000000919402B4D100919502B1D1009199026C
:10021000AED12E9A0FE91FE001501040E9F700C05F
:1002200000002E9803EEA3D100E0A1D100E09FD101
:100230000091A1029CD100919D0299D12E9A0FE9C3
:100240001FE001501040E9F700C000002E9804EEB6
:100250008ED10091A8028BD10091A90288D1009182
:10026000A40285D10091A50282D12E9A0FE91FE048
:1002700001501040E9F700C000002E9805EE77D13C
:1002800000E075D10091B50272D10091AD026FD13D
:100290000091B1026CD12E9A0FE91FE0015010407D
:1002A000E9F700C000002E980BEE61D10091D10259
:1002B0005ED10091D3025BD10091D40258D100915C
:1002C000D50255D12E9A0FE91FE001501040E9F7F1
:1002D00000C000002E980AEE4AD10091CC0247D10E
:1002E0000091CD0244D10091CF0241D10091D002C2
:1002F0003ED12E9A0FE91FE001501040E9F700C0EF
:1003000000002E9809EE33D10091C70230D1009140
:10031000C8022DD10091C9022AD10091CB0227D168
:100320002E9A0FE91FE001501040E9F700C00000CD
:100330002E9808EE1CD10091C10219D10091C30280
:1003400016D10091C40213D10091C50210D12E9A8A
:100350000FE91FE001501040E9F700C000002E989F
:1003600007EE05D10091BC0202D10091BD02FFD081
:100370000091BF02FCD00091C002F9D02E9A0FE983
:100380001FE001501040E9F700C000002E9806EE73
:10039000EED00091B702EBD00091B802E8D0009106
:1003A000B902E5D00091BB02E2D02E9A0FE91FE01E
:1003B00001501040E9F700C000008B3B59F5A0E068
:1003C000B0E0A43000E0B0076CF40091C000102F42
:1003D00017FFFBCF0091C600FD01EA52FD4F0083DD
:1003E0001196EFCF02E300939102A5982E9801E0B9
:1003F000BED000E0BCD000E0BAD000E0B8D00091A0
:10040000D802B5D02E9A0FE91FE001501040E9F74D
:1004100000C000008C3C59F5A0E0B0E0A43000E042
:10042000B0076CF40091C000102F17FFFBCF0091B4
:10043000C600FD01E752FD4F00831196EFCF02E3A6
:1004400000939102A5982E9801EE91D000E08FD0F4
:1004500000E08DD000E08BD00091DB0288D02E9A96
:100460000FE91FE001501040E9F700C000008D3D8A
:1004700059F5A0E0B0E0A43000E0B0076CF40091C2
:10048000C000102F17FFFBCF0091C600FD01E45202
:10049000FD4F00831196EFCF02E300939102A598E0
:1004A0002E9802E064D000E062D000E060D000E06E
:1004B0005ED00091DE025BD02E9A0FE91FE0015062
:1004C0001040E9F700C000008E3E59F5A0E0B0E012
:1004D000A43000E0B0076CF40091C000102F17FFAB
:1004E000FBCF0091C600FD01E152FD4F0083119644
:1004F000EFCF02E300939102A5982E9802EE37D039
:1005000000E035D000E033D000E031D00091E102CE
:100510002ED02E9A0FE91FE001501040E9F700C0DD
:100520000000A89530CE2A931A930A931FB72BB7D1
:1005300008E906BD00919002002329F00091900285
:100540000A950093900200919102002331F00091EE
:1005500091020A950093910201C0A59A2BBF1FBF7B
:10056000099119912991189503E70CBD08950EBDC5
:100570001DB5212F27FFFCCF089500008895FECFE1
:100580000FE80DBF02E00EBFC0E5D2E00E94D70227
:10059000002311F00E94E9020E9472000E94BD0235
:1005A0000C94BD02BA93AA939A938A93089501E09A
:1005B000089520E008D0E9F708953BBF27913BB7A5
:1005C00002D0D9F708952D9301501040202F212BF0
:1005D000089502E3402E06E0502E00E0602EF20166
:1005E000362D6BBE07911691F201EE5FFF4F3F4F24
:1005F0003BBFA791B691F201362DEC5FFF4F3F4F05
:100600003BBF479157916691242F252B262B21F034
:10061000FA01362FD2DF01C0CCDF07E0400E00E048
:10062000501E601EA201662D493356406040B8F24C
:0906300008955200900200000040
:00000001FF
:00000001FF
