:100000000C9421021895189518951895189518951F
:100010001895189518951895189518951895189578
:100020001895189518951895189518951895189568
:100030001895189518951895189518951895189558
:100040001895189518951895189518951895189548
:100050001895189518951895189518950C94F401FD
:100060001895189518951895189518951895189528
:100070001895189518951895189518951895189518
:100080001895189518951895189518951895189508
:1000900018951895189518951895189518951895F8
:1000A00018951895189518951895189518951895E8
:1000B00018951895189518951895189518951895D8
:1000C00018951895189518951895189518951895C8
:1000D00018951895189518951895189518951895B8
:1000E000189518950E943302A89500916000086148
:1000F0000093600008E2009360000FEF01B901E394
:1001000005B907E704B90FEF07B90FEF0AB903E024
:100110000EB90EEF0DB90FEF00BB00E204BB0FE309
:1001200003BB0FEF009301010FEF009304010FEFEA
:10013000009307010FEF00930A0101E00093900282
:1001400000E000939102A895789400E00093C0002D
:1001500000E00093C10006E00093C2000FE90093A5
:10016000C40001E00093C50008E00093C10000E076
:1001700005BD08E906BD00E004BD04E005BD01E0E1
:1001800000936E0052D10091C1000F7E0093C10018
:1001900004E000939002609903C004E00093900291
:1001A000009190020023B9F70091C1000061009313
:1001B000C1000BE110E0112372F02091C000322F3A
:1001C00037FFFBCF2091C600F801EE56FD4F20838C
:1001D00001501040F0CF02E300939102A5982898B7
:1001E0004424552406E0401600E050063CF527E183
:1001F00030E08201000F111F000F111F201B310B77
:10020000390124E130E08201000F111F000F111F9E
:10021000201B310B6216730654F0F301EE56FD4FAE
:10022000008106D10FEF600E0FEF701EEACF2E9AFD
:100230002E9801E0400E00E0501ED4CF289A009185
:10024000AD02802F869587700091AD02902F092F07
:10025000902F9170092F00FB90E097F9925F2C98F6
:10026000082FE6D0092FE4D02C9A0091AC02802F01
:10027000869587700091AC02902F092F902F917076
:10028000092F00FB90E097F9925F2D98082FD0D0AE
:10029000092FCED02D9A0091AB02A02FA295AF705E
:1002A000A6950A2FA02FA1700A2F000F000F000F94
:1002B0001EB1102B1EB90091AB02A02FA295AF70FA
:1002C0000A2FA02FA1700A2F0295007F1EB1102BBC
:1002D0001EB90091AB02A02FA695A695A6950A2F50
:1002E000A02FA1700A2F0295007F000F1EB1102BC6
:1002F0001EB90091AB02A02FA695A6950A2FA02F9C
:10030000A17000E4A09F0EB100290EB90091AB02CC
:10031000A02FA6950A2FA02FA1700A2F00FB00E0A6
:1003200007F91EB1102B1EB90091AB02A02F0A2FA6
:10033000A02FA17001B30A2B01BB0091AA02A02F2C
:10034000A295AF70A6950A2FA02FA1700A2F000FBB
:10035000000F11B3102B11BB0091AA02A02FA29580
:10036000AF700A2FA02FA1700A2F000F000F000FEF
:1003700011B3102B11BB0091AA02A02FA695A69530
:10038000A6950A2FA02FA1700A2F0295007F11B306
:10039000102B11BB0091AA02A02FA695A6950A2F9B
:1003A000A02FA1700A2F0295007F000F11B3102B10
:1003B00011BB0091AA02A02FA6950A2FA02FA17011
:1003C00000E4A09F01B3002901BB0091AA02A02F65
:1003D0000A2FA02FA1700A2F00FB00E007F911B32C
:1003E000102B11BBA895CFCE2A931A930A931FB74F
:1003F0002BB708E906BD00919002002329F0009177
:1004000090020A950093900200919102002331F02E
:10041000009191020A950093910201C0A59A2BBF09
:100420001FBF099119912991189503E50CBD0895F5
:100430000EBD1DB5212F27FFFCCF08950000889524
:10044000FECF0FE80DBF02E00EBFC0E5D2E00E9474
:100450003C02002311F00E944E020E9472000E9492
:100460001E020C941E027A926A925A924A92BA938F
:10047000AA939A938A93089501E0089520E008D002
:10048000E9F708953BBF27913BB702D0D9F708950C
:100490002D9301501040202F212B08950CEF402E5A
:1004A00004E0502E00E0602EF201362D6BBE079165
:1004B0001691F201EE5FFF4F3F4F3BBFA791B69100
:1004C000F201362DEC5FFF4F3F4F3BBF47915791F5
:1004D0006691242F252B262B21F0FA01362FD2DF0F
:1004E00001C0CCDF07E0400E00E0501E601EA201FC
:1004F000662D433055406040B8F208951E009002CA
:03050000000000F8
:00000001FF
:00000001FF
