:100000000C948301189518951895189518951895BE
:100010001895189518951895189518951895189578
:100020001895189518951895189518951895189568
:100030001895189518951895189518951895189558
:100040001895189518951895189518951895189548
:100050001895189518951895189518950C942A01C7
:100060001895189518951895189518951895189528
:100070001895189518951895189518951895189518
:100080001895189518951895189518951895189508
:1000900018951895189518951895189518951895F8
:1000A00018951895189518951895189518951895E8
:1000B00018951895189518951895189518951895D8
:1000C00018951895189518951895189518951895C8
:1000D00018951895189518951895189518951895B8
:1000E0001895189541444634333530202D205769F2
:1000F000646562616E642053796E74686573697AB1
:100100006572207769746820496E746567726174DE
:0701100065642056434F0017
:100118008A93A8950091600008610093600008E246
:10012800009360000FEF01B907E704B90FEF07B9B3
:100138000FEF0AB903E00EB90EEF0DB90FEF00BBD0
:1001480000E204BB0FE303BB0FEF009301010FE7CD
:10015800009304010EE7009307010FEF00930A01D3
:100168001F9B04C001E00093B50203C000E00093A8
:10017800B50201E00093B60200E00093B702A8952B
:1001880078940091B502002309F05CC000E0009368
:10019800C00000E00093C10006E00093C2000FE930
:1001A8000093C4000FE90093C5000CE00093C10060
:1001B80000E005BD08E906BD00E004BD04E005BD9A
:1001C80001E000936E0063D004EE10E00E946D0120
:1001D8000DE00E944E010AE00E944E0100E912E083
:1001E8000E9460010DE00E944E010AE00E944E014B
:1001F8000091C1000F7E0093C10004E00093B60295
:10020800489903C004E00093B6020091B6020023A7
:10021800B9F70091C10000610093C1000091C000CE
:10022800102F17FFFBCF0091C100102F11FFE0CF57
:100238000091C600802F8F708530D1F605E00E94AE
:100248004E01D6CF00E010E0899108952A931A93C1
:100258000A931FB72BB708E906BD0091B602002321
:1002680029F00091B6020A950093B6020091B702F0
:10027800002331F00091B7020A950093B70201C03C
:10028800A59A2BBF1FBF099119912991189503E5CC
:100298000CBD08951091C00010641093C000109117
:1002A800C1001E7F1093C1000093C6001091C000CA
:1002B800212F26FFFBCF0895BA93AA93D8010C915A
:1002C800002321F00C91E6DF1196F9CFA991B9919D
:1002D80008950E949501C801A0E0B0E0FC01EA0F72
:1002E800FB1F0491A395402E002319F0042DD2DFA3
:1002F800F4CFE5E00C949B0100008895FECF0FE851
:100308000DBF02E00EBFC0E5D2E00E94A5010023A8
:1003180011F00E94B7010E948C000E9480010C9489
:1003280080014A92BA93AA939A938A9308954C802B
:10033800BB81AA8199818881F0E0EC0FFD1FEF0154
:10034800089501E0089520E008D0E9F708953BBF3B
:1003580027913BB702D0D9F708952D93015010404B
:10036800202F212B08950EEC402E03E0502E00E0A4
:10037800602EF201362D6BBE07911691F201EE5FE9
:10038800FF4F3F4F3BBFA791B691F201362DEC5F6F
:10039800FF4F3F4F3BBF479157916691242F252B25
:1003A800262B21F0FA01362FD2DF01C0CCDF07E07F
:1003B800400E00E0501E601EA201662D4C3D5340C9
:1003C8006040B8F2089525009002DC03000300B5F0
:1003D800020000002D2D2D2D2D2D2D2D2D2D2D2DF7
:1003E8002D2D2D2D2D2D2D2D2D2D2D2D2D2D2D2D35
:0903F8002D2D2D2D2D2D2D2D0094
:00000001FF
:00000001FF
