:100000000C94B2011895189518951895189518958F
:100010001895189518951895189518951895189578
:100020001895189518951895189518951895189568
:100030001895189518951895189518951895189558
:100040001895189518951895189518951895189548
:100050001895189518951895189518950C9485016C
:100060001895189518951895189518951895189528
:100070001895189518951895189518951895189518
:100080001895189518951895189518951895189508
:1000900018951895189518951895189518951895F8
:1000A00018951895189518951895189518951895E8
:1000B00018951895189518951895189518951895D8
:1000C00018951895189518951895189518951895C8
:1000D00018951895189518951895189518951895B8
:1000E000189518950E94C401A895009160000861B8
:1000F0000093600008E2009360000FEF01B901E394
:1001000005B907E704B90FEF07B90FEF0AB903E024
:100110000EB90EEF0DB90FEF00BB00E204BB0FE309
:1001200003BB0FEF009301010FEF009304010FEFEA
:10013000009307010FEF00930A0101E00093900282
:1001400000E000939102A895789400E00093C0002D
:1001500000E00093C10006E00093C20000E10093BC
:10016000C40000E00093C50008E00093C10000E077
:1001700005BD08E906BD00E004BD04E005BD01E0E1
:1001800000936E00E3D00091C1000F7E0093C10088
:1001900004E000939002609903C004E00093900291
:1001A000009190020023B9F70091C1000061009313
:1001B000C1000091C000102F17FFFBCF0091C600B7
:1001C000802FA0E0B0E0A43406E0B0076CF400910A
:1001D000C000102F17FFFBCF0091C600FD01EE56A7
:1001E000FD4F00831196EFCF853509F08CC002E3F7
:1001F00000939102A59803E0ACD000E0AAD0009152
:100200009405A7D000919505A4D000919905A1D09F
:1002100003EE9FD000E09DD000E09BD00091A108AC
:1002200098D000919D0895D004EE93D00091A80835
:1002300090D00091A9088DD00091A4088AD0009197
:100240009B0887D005EE85D000E083D00091B508EB
:1002500080D00091AD087DD00091B1087AD006EE33
:1002600078D00091B70875D00091B80872D000918D
:10027000B9086FD00091BB086CD007EE6AD000912E
:10028000BC0867D00091BD0864D00091BF0861D060
:100290000091C0085ED008EE5CD00091C10859D032
:1002A0000091C30856D00091C40853D00091C508EE
:1002B00050D009EE4ED00091C7084BD00091C8082D
:1002C00048D00091C90845D00091CB0842D00AEE31
:1002D00040D00091CC083DD00091CD083AD000919B
:1002E000CF0837D00091D00834D00BEE32D0009137
:1002F000D1082FD00091D3082CD00091D40829D058
:100300000091D50826D0A8953ECF2A931A930A9338
:100310001FB72BB708E906BD00919002002329F012
:10032000009190020A95009390020091910200239F
:1003300031F0009191020A950093910201C0A59AB3
:100340002BBF1FBF09911991299118950BE50CBD81
:1003500008950EBD1DB5212F27FFFCCF0895000085
:100360008895FECF0FE80DBF02E00EBFC0E5D2E0DA
:100370000E94C901002311F00E94DB010E9472005B
:100380000E94AF010C94AF01BA93AA939A938A93F7
:10039000089501E0089520E008D0E9F708953BBFF3
:1003A00027913BB702D0D9F708952D930150104003
:1003B000202F212B089506E1402E04E0502E00E06E
:1003C000602EF201362D6BBE07911691F201EE5FA1
:1003D000FF4F3F4F3BBFA791B691F201362DEC5F27
:1003E000FF4F3F4F3BBF479157916691242F252BDD
:1003F000262B21F0FA01362FD2DF01C0CCDF07E037
:10040000400E00E0501E601EA201662D4D3154408A
:0D0410006040B8F20895460690020000001A
:00000001FF
:00000001FF
