:100000000C9436021895189518951895189518950A
:100010001895189518951895189518951895189578
:100020001895189518951895189518951895189568
:100030001895189518951895189518951895189558
:100040001895189518951895189518951895189548
:100050001895189518951895189518950C940902E7
:100060001895189518951895189518951895189528
:100070001895189518951895189518951895189518
:100080001895189518951895189518951895189508
:1000900018951895189518951895189518951895F8
:1000A00018951895189518951895189518951895E8
:1000B00018951895189518951895189518951895D8
:1000C00018951895189518951895189518951895C8
:1000D00018951895189518951895189518951895B8
:1000E000189518950E944802A89500916000086133
:1000F0000093600008E2009360000FEF01B901E394
:1001000005B907E704B90FEF07B90FEF0AB903E024
:100110000EB90EEF0DB90FEF00BB00E204BB0FE309
:1001200003BB0FEF009301010FEF009304010FEFEA
:10013000009307010FEF00930A0101E00093900282
:1001400000E000939102A895789400E00093C0002D
:1001500000E00093C10006E00093C2000FE90093A5
:10016000C40001E00093C50008E00093C10000E076
:1001700005BD08E906BD00E004BD04E005BD01E0E1
:1001800000936E0067D10091C1000F7E0093C10003
:1001900004E000939002609903C004E00093900291
:1001A000009190020023B9F70091C1000061009313
:1001B000C1000091C000102F17FFFBCF0091C600B7
:1001C000802FABE1B0E0BB236AF00091C000102F9C
:1001D00017FFFBCF0091C600FD01EE56FD4F0083D7
:1001E0001197F1CF8A3A09F064C002E300939102BB
:1001F000A59828980091AC02902F96959770009141
:10020000AC02602E062D00FB662460F8062D00FB74
:10021000662467F80EE0600E2C98092F1ED1062D7B
:100220001CD12C9A289A28980091AD02902F96956F
:1002300097700091AD02602E062D00FB662460F8D9
:10024000062D00FB662467F80EE0600E2D98092F3E
:1002500004D1062D02D12D9A289A4424552406E073
:10026000401600E050060CF0D2C027E130E08201D9
:10027000000F111F000F111F201B310BD90124E1AA
:1002800030E08201000F111F000F111F201B310BE6
:10029000A217B3073CF0FD01EE56FD4F0081DDD003
:1002A0001197EDCF2E9A2E9801E0400E00E0501EDF
:1002B000D6CF853509F0ABC008E000939102A59830
:1002C0000091AB02102F12951F701695012F102F61
:1002D0001170012F000F000F000F2EB1202B2EB92F
:1002E0000091AB02102F12951F70012F102F11706B
:1002F000012F0295007F2EB1202B2EB90091AB0269
:10030000102F169516951695012F102F1170012F8D
:100310000295007F000F2EB1202B2EB90091AB0269
:10032000102F16951695012F102F117000E4109FB5
:100330000EB100290EB90091AB02102F1695012FB6
:10034000102F1170012F00FB00E007F92EB1202BB8
:100350002EB90091AB02102F012F102F117001B395
:10036000012B01BB0091AA02102F12951F70169548
:10037000012F102F1170012F000F000F21B3202B20
:1003800021BB0091AA02102F12951F70012F102F70
:100390001170012F000F000F000F21B3202B21BB84
:1003A0000091AA02102F169516951695012F102F61
:1003B0001170012F0295007F21B3202B21BB0091EA
:1003C000AA02102F16951695012F102F1170012FCC
:1003D0000295007F000F21B3202B21BB0091AA02C0
:1003E000102F1695012F102F117000E4109F01B3EC
:1003F000002901BB0091AA02102F012F102F1170AC
:10040000012F00FB00E007F911B3102B11BBA895D9
:10041000BACE2A931A930A931FB72BB708E906BDE1
:1004200000919002002329F0009190020A95009318
:10043000900200919102002331F0009191020A95FF
:100440000093910201C0A59A2BBF1FBF099119917A
:10045000299118950BE50CBD08950EBD1DB5212FF2
:1004600027FFFCCF089500008895FECF0FE80DBF51
:1004700002E00EBFC0E5D2E00E945002002311F05E
:100480000E9462020E9472000E9433020C943302A6
:100490006A925A924A92BA93AA939A938A93089527
:1004A00001E0089520E008D0E9F708953BBF2791C7
:1004B0003BB702D0D9F708952D9301501040202F5B
:1004C000212B089504E2402E05E0502E00E0602E1E
:1004D000F201362D6BBE07911691F201EE5FFF4FD0
:1004E0003F4F3BBFA791B691F201362DEC5FFF4F16
:1004F0003F4F3BBF479157916691242F252B262BC9
:1005000021F0FA01362FD2DF01C0CCDF07E0400E28
:1005100000E0501E601EA201662D4B325540604027
:0B052000B8F208951E009002000000D9
:00000001FF
:00000001FF
